{
  "address": "0x5FbDB2315678afecb367f032d93F642f64180aa3",
  "abi": [
    {
      "anonymous": false,
      "inputs": [
        {
          "indexed": true,
          "internalType": "address",
          "name": "previousOwner",
          "type": "address"
        },
        {
          "indexed": true,
          "internalType": "address",
          "name": "newOwner",
          "type": "address"
        }
      ],
      "name": "OwnershipTransferred",
      "type": "event"
    },
    {
      "inputs": [
        {
          "internalType": "bytes32",
          "name": "_key",
          "type": "bytes32"
        }
      ],
      "name": "deleteAddress",
      "outputs": [],
      "stateMutability": "nonpayable",
      "type": "function"
    },
    {
      "inputs": [
        {
          "internalType": "bytes32",
          "name": "_key",
          "type": "bytes32"
        }
      ],
      "name": "deleteBool",
      "outputs": [],
      "stateMutability": "nonpayable",
      "type": "function"
    },
    {
      "inputs": [
        {
          "internalType": "bytes32",
          "name": "_key",
          "type": "bytes32"
        }
      ],
      "name": "deleteBytes",
      "outputs": [],
      "stateMutability": "nonpayable",
      "type": "function"
    },
    {
      "inputs": [
        {
          "internalType": "bytes32",
          "name": "_key",
          "type": "bytes32"
        }
      ],
      "name": "deleteInt",
      "outputs": [],
      "stateMutability": "nonpayable",
      "type": "function"
    },
    {
      "inputs": [
        {
          "internalType": "bytes32",
          "name": "_key",
          "type": "bytes32"
        }
      ],
      "name": "deleteString",
      "outputs": [],
      "stateMutability": "nonpayable",
      "type": "function"
    },
    {
      "inputs": [
        {
          "internalType": "bytes32",
          "name": "_key",
          "type": "bytes32"
        }
      ],
      "name": "deleteUint",
      "outputs": [],
      "stateMutability": "nonpayable",
      "type": "function"
    },
    {
      "inputs": [
        {
          "internalType": "bytes32",
          "name": "record",
          "type": "bytes32"
        }
      ],
      "name": "getAddressValue",
      "outputs": [
        {
          "internalType": "address",
          "name": "",
          "type": "address"
        }
      ],
      "stateMutability": "view",
      "type": "function"
    },
    {
      "inputs": [
        {
          "internalType": "bytes32",
          "name": "record",
          "type": "bytes32"
        }
      ],
      "name": "getBooleanValue",
      "outputs": [
        {
          "internalType": "bool",
          "name": "",
          "type": "bool"
        }
      ],
      "stateMutability": "view",
      "type": "function"
    },
    {
      "inputs": [
        {
          "internalType": "bytes32",
          "name": "record",
          "type": "bytes32"
        }
      ],
      "name": "getBytesValue",
      "outputs": [
        {
          "internalType": "bytes",
          "name": "",
          "type": "bytes"
        }
      ],
      "stateMutability": "view",
      "type": "function"
    },
    {
      "inputs": [
        {
          "internalType": "bytes32",
          "name": "record",
          "type": "bytes32"
        }
      ],
      "name": "getIntValue",
      "outputs": [
        {
          "internalType": "int256",
          "name": "",
          "type": "int256"
        }
      ],
      "stateMutability": "view",
      "type": "function"
    },
    {
      "inputs": [
        {
          "internalType": "bytes32",
          "name": "record",
          "type": "bytes32"
        }
      ],
      "name": "getStringValue",
      "outputs": [
        {
          "internalType": "string",
          "name": "",
          "type": "string"
        }
      ],
      "stateMutability": "view",
      "type": "function"
    },
    {
      "inputs": [
        {
          "internalType": "bytes32",
          "name": "record",
          "type": "bytes32"
        }
      ],
      "name": "getUIntValue",
      "outputs": [
        {
          "internalType": "uint256",
          "name": "",
          "type": "uint256"
        }
      ],
      "stateMutability": "view",
      "type": "function"
    },
    {
      "inputs": [],
      "name": "latestVersion",
      "outputs": [
        {
          "internalType": "address",
          "name": "",
          "type": "address"
        }
      ],
      "stateMutability": "view",
      "type": "function"
    },
    {
      "inputs": [],
      "name": "owner",
      "outputs": [
        {
          "internalType": "address",
          "name": "",
          "type": "address"
        }
      ],
      "stateMutability": "view",
      "type": "function"
    },
    {
      "inputs": [],
      "name": "renounceOwnership",
      "outputs": [],
      "stateMutability": "nonpayable",
      "type": "function"
    },
    {
      "inputs": [
        {
          "internalType": "bytes32",
          "name": "record",
          "type": "bytes32"
        },
        {
          "internalType": "address",
          "name": "value",
          "type": "address"
        }
      ],
      "name": "setAddressValue",
      "outputs": [],
      "stateMutability": "nonpayable",
      "type": "function"
    },
    {
      "inputs": [
        {
          "internalType": "bytes32",
          "name": "record",
          "type": "bytes32"
        },
        {
          "internalType": "bool",
          "name": "value",
          "type": "bool"
        }
      ],
      "name": "setBooleanValue",
      "outputs": [],
      "stateMutability": "nonpayable",
      "type": "function"
    },
    {
      "inputs": [
        {
          "internalType": "bytes32",
          "name": "record",
          "type": "bytes32"
        },
        {
          "internalType": "bytes",
          "name": "value",
          "type": "bytes"
        }
      ],
      "name": "setBytesValue",
      "outputs": [],
      "stateMutability": "nonpayable",
      "type": "function"
    },
    {
      "inputs": [
        {
          "internalType": "bytes32",
          "name": "record",
          "type": "bytes32"
        },
        {
          "internalType": "int256",
          "name": "value",
          "type": "int256"
        }
      ],
      "name": "setIntValue",
      "outputs": [],
      "stateMutability": "nonpayable",
      "type": "function"
    },
    {
      "inputs": [
        {
          "internalType": "bytes32",
          "name": "record",
          "type": "bytes32"
        },
        {
          "internalType": "string",
          "name": "value",
          "type": "string"
        }
      ],
      "name": "setStringValue",
      "outputs": [],
      "stateMutability": "nonpayable",
      "type": "function"
    },
    {
      "inputs": [
        {
          "internalType": "bytes32",
          "name": "record",
          "type": "bytes32"
        },
        {
          "internalType": "uint256",
          "name": "value",
          "type": "uint256"
        }
      ],
      "name": "setUIntValue",
      "outputs": [],
      "stateMutability": "nonpayable",
      "type": "function"
    },
    {
      "inputs": [
        {
          "internalType": "address",
          "name": "newOwner",
          "type": "address"
        }
      ],
      "name": "transferOwnership",
      "outputs": [],
      "stateMutability": "nonpayable",
      "type": "function"
    },
    {
      "inputs": [
        {
          "internalType": "address",
          "name": "_newVersion",
          "type": "address"
        }
      ],
      "name": "upgradeVersion",
      "outputs": [],
      "stateMutability": "nonpayable",
      "type": "function"
    }
  ],
  "transactionHash": "0x3b9eeecb712507d74d8f3da9b0d9e9b548d6ed3c2b18064ab71a0cd688cb8c63",
  "args": [],
  "solcInputHash": "a8c3bb8c62c799514018445a3891b3e3",
  "bytecode": "0x608060405234801561001057600080fd5b5061001a3361001f565b61006f565b600080546001600160a01b038381166001600160a01b0319831681178455604051919092169283917f8be0079c531659141344cd1fd0a4f28419497f9722a3daafe3b4186f6b6457e09190a35050565b610e138061007e6000396000f3fe608060405234801561001057600080fd5b506004361061014d5760003560e01c80638da5cb5b116100c3578063c9a52d2c1161007c578063c9a52d2c14610312578063d28eb96314610325578063e2b202bf14610338578063f2fde38b1461034b578063f58660661461035e578063f6bb3cc41461037157600080fd5b80638da5cb5b1461027a5780639007127b1461028b578063a209a29c146102b9578063a77aa49e146102cc578063bdc963d8146102df578063c07f47d4146102ff57600080fd5b806344bfa56e1161011557806344bfa56e146101d85780634c77e5ba146101f85780635a2bf25a14610239578063616b59f61461024c578063715018a61461025f5780638c1600951461026757600080fd5b80630e14a3761461015257806317e7dd22146101675780632c62ff2d1461019f5780633562fd20146101b25780633eba9ed2146101c5575b600080fd5b610165610160366004610bda565b610384565b005b61018a610175366004610bda565b60009081526003602052604090205460ff1690565b60405190151581526020015b60405180910390f35b6101656101ad366004610bda565b6103f3565b6101656101c0366004610ca8565b610453565b6101656101d3366004610c1d565b6104ad565b6101eb6101e6366004610bda565b610515565b6040516101969190610d14565b610221610206366004610bda565b6000908152600260205260409020546001600160a01b031690565b6040516001600160a01b039091168152602001610196565b610165610247366004610bf2565b6105b7565b61016561025a366004610bda565b61062d565b61016561068f565b610165610275366004610bda565b6106c5565b6000546001600160a01b0316610221565b6102ab610299366004610bda565b60009081526005602052604090205490565b604051908152602001610196565b6101eb6102c7366004610bda565b61071e565b6101656102da366004610ca8565b61073b565b6102ab6102ed366004610bda565b60009081526007602052604090205490565b600154610221906001600160a01b031681565b610165610320366004610c50565b610795565b610165610333366004610bb9565b610801565b610165610346366004610bda565b61084d565b610165610359366004610bb9565b6108a6565b61016561036c366004610c50565b61093e565b61016561037f366004610bda565b6109a5565b600154604080516060810190915260308082526001600160a01b03909216331491610dae6020830139906103d45760405162461bcd60e51b81526004016103cb9190610d14565b60405180910390fd5b50600090815260026020526040902080546001600160a01b0319169055565b600154604080516060810190915260308082526001600160a01b03909216331491610dae60208301399061043a5760405162461bcd60e51b81526004016103cb9190610d14565b506000908152600360205260409020805460ff19169055565b600154604080516060810190915260308082526001600160a01b03909216331491610dae60208301399061049a5760405162461bcd60e51b81526004016103cb9190610d14565b5060009182526007602052604090912055565b600154604080516060810190915260308082526001600160a01b03909216331491610dae6020830139906104f45760405162461bcd60e51b81526004016103cb9190610d14565b50600091825260036020526040909120805460ff1916911515919091179055565b600081815260046020526040902080546060919061053290610d5c565b80601f016020809104026020016040519081016040528092919081815260200182805461055e90610d5c565b80156105ab5780601f10610580576101008083540402835291602001916105ab565b820191906000526020600020905b81548152906001019060200180831161058e57829003601f168201915b50505050509050919050565b600154604080516060810190915260308082526001600160a01b03909216331491610dae6020830139906105fe5760405162461bcd60e51b81526004016103cb9190610d14565b5060009182526002602052604090912080546001600160a01b0319166001600160a01b03909216919091179055565b600154604080516060810190915260308082526001600160a01b03909216331491610dae6020830139906106745760405162461bcd60e51b81526004016103cb9190610d14565b50600081815260046020526040812061068c91610a54565b50565b6000546001600160a01b031633146106b95760405162461bcd60e51b81526004016103cb90610d27565b6106c36000610a04565b565b600154604080516060810190915260308082526001600160a01b03909216331491610dae60208301399061070c5760405162461bcd60e51b81526004016103cb9190610d14565b50600090815260056020526040812055565b600081815260066020526040902080546060919061053290610d5c565b600154604080516060810190915260308082526001600160a01b03909216331491610dae6020830139906107825760405162461bcd60e51b81526004016103cb9190610d14565b5060009182526005602052604090912055565b600154604080516060810190915260308082526001600160a01b03909216331491610dae6020830139906107dc5760405162461bcd60e51b81526004016103cb9190610d14565b50600082815260046020908152604090912082516107fc92840190610a8e565b505050565b6000546001600160a01b0316331461082b5760405162461bcd60e51b81526004016103cb90610d27565b600180546001600160a01b0319166001600160a01b0392909216919091179055565b600154604080516060810190915260308082526001600160a01b03909216331491610dae6020830139906108945760405162461bcd60e51b81526004016103cb9190610d14565b50600090815260076020526040812055565b6000546001600160a01b031633146108d05760405162461bcd60e51b81526004016103cb90610d27565b6001600160a01b0381166109355760405162461bcd60e51b815260206004820152602660248201527f4f776e61626c653a206e6577206f776e657220697320746865207a65726f206160448201526564647265737360d01b60648201526084016103cb565b61068c81610a04565b600154604080516060810190915260308082526001600160a01b03909216331491610dae6020830139906109855760405162461bcd60e51b81526004016103cb9190610d14565b50600082815260066020908152604090912082516107fc92840190610a8e565b600154604080516060810190915260308082526001600160a01b03909216331491610dae6020830139906109ec5760405162461bcd60e51b81526004016103cb9190610d14565b50600081815260066020526040812061068c91610a54565b600080546001600160a01b038381166001600160a01b0319831681178455604051919092169283917f8be0079c531659141344cd1fd0a4f28419497f9722a3daafe3b4186f6b6457e09190a35050565b508054610a6090610d5c565b6000825580601f10610a70575050565b601f01602090049060005260206000209081019061068c9190610b12565b828054610a9a90610d5c565b90600052602060002090601f016020900481019282610abc5760008555610b02565b82601f10610ad557805160ff1916838001178555610b02565b82800160010185558215610b02579182015b82811115610b02578251825591602001919060010190610ae7565b50610b0e929150610b12565b5090565b5b80821115610b0e5760008155600101610b13565b600067ffffffffffffffff80841115610b4257610b42610d97565b604051601f8501601f19908116603f01168101908282118183101715610b6a57610b6a610d97565b81604052809350858152868686011115610b8357600080fd5b858560208301376000602087830101525050509392505050565b80356001600160a01b0381168114610bb457600080fd5b919050565b600060208284031215610bca578081fd5b610bd382610b9d565b9392505050565b600060208284031215610beb578081fd5b5035919050565b60008060408385031215610c04578081fd5b82359150610c1460208401610b9d565b90509250929050565b60008060408385031215610c2f578182fd5b8235915060208301358015158114610c45578182fd5b809150509250929050565b60008060408385031215610c62578182fd5b82359150602083013567ffffffffffffffff811115610c7f578182fd5b8301601f81018513610c8f578182fd5b610c9e85823560208401610b27565b9150509250929050565b60008060408385031215610cba578182fd5b50508035926020909101359150565b60008151808452815b81811015610cee57602081850181015186830182015201610cd2565b81811115610cff5782602083870101525b50601f01601f19169290920160200192915050565b602081526000610bd36020830184610cc9565b6020808252818101527f4f776e61626c653a2063616c6c6572206973206e6f7420746865206f776e6572604082015260600190565b600181811c90821680610d7057607f821691505b60208210811415610d9157634e487b7160e01b600052602260045260246000fd5b50919050565b634e487b7160e01b600052604160045260246000fdfe6f6e6c79206c617465737456657273696f6e2063616e2063616c6c20757064617465207468697320636f6e7472616374a26469706673582212206d73eeb60213e4292a5687c3a7d3782cb81c301764386f8016b29d18b83f3c1264736f6c63430008040033",
  "devdoc": {
    "kind": "dev",
    "methods": {
      "owner()": {
        "details": "Returns the address of the current owner."
      },
      "renounceOwnership()": {
        "details": "Leaves the contract without owner. It will not be possible to call `onlyOwner` functions anymore. Can only be called by the current owner. NOTE: Renouncing ownership will leave the contract without an owner, thereby removing any functionality that is only available to the owner."
      },
      "transferOwnership(address)": {
        "details": "Transfers ownership of the contract to a new account (`newOwner`). Can only be called by the current owner."
      }
    },
    "version": 1
  },
  "userdoc": {
    "kind": "user",
    "methods": {},
    "version": 1
  },
  "storageLayout": {
    "storage": [
      {
        "astId": 7,
        "contract": "contracts/EternalStorage.sol:EternalStorage",
        "label": "_owner",
        "offset": 0,
        "slot": "0",
        "type": "t_address"
      },
      {
        "astId": 225,
        "contract": "contracts/EternalStorage.sol:EternalStorage",
        "label": "latestVersion",
        "offset": 0,
        "slot": "1",
        "type": "t_address"
      },
      {
        "astId": 232,
        "contract": "contracts/EternalStorage.sol:EternalStorage",
        "label": "AddressStorage",
        "offset": 0,
        "slot": "2",
        "type": "t_mapping(t_bytes32,t_address)"
      },
      {
        "astId": 236,
        "contract": "contracts/EternalStorage.sol:EternalStorage",
        "label": "BooleanStorage",
        "offset": 0,
        "slot": "3",
        "type": "t_mapping(t_bytes32,t_bool)"
      },
      {
        "astId": 240,
        "contract": "contracts/EternalStorage.sol:EternalStorage",
        "label": "BytesStorage",
        "offset": 0,
        "slot": "4",
        "type": "t_mapping(t_bytes32,t_bytes_storage)"
      },
      {
        "astId": 244,
        "contract": "contracts/EternalStorage.sol:EternalStorage",
        "label": "IntStorage",
        "offset": 0,
        "slot": "5",
        "type": "t_mapping(t_bytes32,t_int256)"
      },
      {
        "astId": 248,
        "contract": "contracts/EternalStorage.sol:EternalStorage",
        "label": "StringStorage",
        "offset": 0,
        "slot": "6",
        "type": "t_mapping(t_bytes32,t_string_storage)"
      },
      {
        "astId": 252,
        "contract": "contracts/EternalStorage.sol:EternalStorage",
        "label": "UIntStorage",
        "offset": 0,
        "slot": "7",
        "type": "t_mapping(t_bytes32,t_uint256)"
      }
    ],
    "types": {
      "t_address": {
        "encoding": "inplace",
        "label": "address",
        "numberOfBytes": "20"
      },
      "t_bool": {
        "encoding": "inplace",
        "label": "bool",
        "numberOfBytes": "1"
      },
      "t_bytes32": {
        "encoding": "inplace",
        "label": "bytes32",
        "numberOfBytes": "32"
      },
      "t_bytes_storage": {
        "encoding": "bytes",
        "label": "bytes",
        "numberOfBytes": "32"
      },
      "t_int256": {
        "encoding": "inplace",
        "label": "int256",
        "numberOfBytes": "32"
      },
      "t_mapping(t_bytes32,t_address)": {
        "encoding": "mapping",
        "key": "t_bytes32",
        "label": "mapping(bytes32 => address)",
        "numberOfBytes": "32",
        "value": "t_address"
      },
      "t_mapping(t_bytes32,t_bool)": {
        "encoding": "mapping",
        "key": "t_bytes32",
        "label": "mapping(bytes32 => bool)",
        "numberOfBytes": "32",
        "value": "t_bool"
      },
      "t_mapping(t_bytes32,t_bytes_storage)": {
        "encoding": "mapping",
        "key": "t_bytes32",
        "label": "mapping(bytes32 => bytes)",
        "numberOfBytes": "32",
        "value": "t_bytes_storage"
      },
      "t_mapping(t_bytes32,t_int256)": {
        "encoding": "mapping",
        "key": "t_bytes32",
        "label": "mapping(bytes32 => int256)",
        "numberOfBytes": "32",
        "value": "t_int256"
      },
      "t_mapping(t_bytes32,t_string_storage)": {
        "encoding": "mapping",
        "key": "t_bytes32",
        "label": "mapping(bytes32 => string)",
        "numberOfBytes": "32",
        "value": "t_string_storage"
      },
      "t_mapping(t_bytes32,t_uint256)": {
        "encoding": "mapping",
        "key": "t_bytes32",
        "label": "mapping(bytes32 => uint256)",
        "numberOfBytes": "32",
        "value": "t_uint256"
      },
      "t_string_storage": {
        "encoding": "bytes",
        "label": "string",
        "numberOfBytes": "32"
      },
      "t_uint256": {
        "encoding": "inplace",
        "label": "uint256",
        "numberOfBytes": "32"
      }
    }
  }
}